{
  "_format": "hh3-artifact-1",
  "contractName": "WormGame",
  "sourceName": "contracts/WormGame.sol",
  "abi": [
    {
      "inputs": [
        {
          "internalType": "address",
          "name": "_relayer",
          "type": "address"
        },
        {
          "internalType": "uint256",
          "name": "_minExitValue",
          "type": "uint256"
        }
      ],
      "stateMutability": "nonpayable",
      "type": "constructor"
    },
    {
      "inputs": [],
      "name": "AlreadyInGame",
      "type": "error"
    },
    {
      "inputs": [],
      "name": "InvalidAmount",
      "type": "error"
    },
    {
      "inputs": [],
      "name": "InvalidStatus",
      "type": "error"
    },
    {
      "inputs": [],
      "name": "LengthMismatch",
      "type": "error"
    },
    {
      "inputs": [],
      "name": "NoRewardToClaim",
      "type": "error"
    },
    {
      "inputs": [],
      "name": "NotExited",
      "type": "error"
    },
    {
      "inputs": [],
      "name": "OnlyRelayer",
      "type": "error"
    },
    {
      "inputs": [
        {
          "internalType": "address",
          "name": "owner",
          "type": "address"
        }
      ],
      "name": "OwnableInvalidOwner",
      "type": "error"
    },
    {
      "inputs": [
        {
          "internalType": "address",
          "name": "account",
          "type": "address"
        }
      ],
      "name": "OwnableUnauthorizedAccount",
      "type": "error"
    },
    {
      "inputs": [],
      "name": "ReentrancyGuardReentrantCall",
      "type": "error"
    },
    {
      "anonymous": false,
      "inputs": [
        {
          "indexed": true,
          "internalType": "address",
          "name": "player",
          "type": "address"
        },
        {
          "indexed": false,
          "internalType": "address",
          "name": "token",
          "type": "address"
        },
        {
          "indexed": false,
          "internalType": "uint256",
          "name": "amount",
          "type": "uint256"
        },
        {
          "indexed": false,
          "internalType": "uint256",
          "name": "gameId",
          "type": "uint256"
        },
        {
          "indexed": false,
          "internalType": "uint256",
          "name": "timestamp",
          "type": "uint256"
        }
      ],
      "name": "GameEntered",
      "type": "event"
    },
    {
      "anonymous": false,
      "inputs": [
        {
          "indexed": true,
          "internalType": "address",
          "name": "player",
          "type": "address"
        },
        {
          "indexed": false,
          "internalType": "enum WormGame.PlayerStatus",
          "name": "newStatus",
          "type": "uint8"
        },
        {
          "indexed": false,
          "internalType": "uint256",
          "name": "gameId",
          "type": "uint256"
        },
        {
          "indexed": false,
          "internalType": "address[]",
          "name": "rewardTokens",
          "type": "address[]"
        },
        {
          "indexed": false,
          "internalType": "uint256[]",
          "name": "rewardAmounts",
          "type": "uint256[]"
        }
      ],
      "name": "GameStateUpdated",
      "type": "event"
    },
    {
      "anonymous": false,
      "inputs": [
        {
          "indexed": true,
          "internalType": "address",
          "name": "previousOwner",
          "type": "address"
        },
        {
          "indexed": true,
          "internalType": "address",
          "name": "newOwner",
          "type": "address"
        }
      ],
      "name": "OwnershipTransferred",
      "type": "event"
    },
    {
      "anonymous": false,
      "inputs": [
        {
          "indexed": true,
          "internalType": "address",
          "name": "oldRelayer",
          "type": "address"
        },
        {
          "indexed": true,
          "internalType": "address",
          "name": "newRelayer",
          "type": "address"
        }
      ],
      "name": "RelayerUpdated",
      "type": "event"
    },
    {
      "anonymous": false,
      "inputs": [
        {
          "indexed": true,
          "internalType": "address",
          "name": "player",
          "type": "address"
        },
        {
          "indexed": false,
          "internalType": "uint256",
          "name": "gameId",
          "type": "uint256"
        },
        {
          "indexed": false,
          "internalType": "address[]",
          "name": "tokens",
          "type": "address[]"
        },
        {
          "indexed": false,
          "internalType": "uint256[]",
          "name": "amounts",
          "type": "uint256[]"
        }
      ],
      "name": "RewardClaimed",
      "type": "event"
    },
    {
      "inputs": [],
      "name": "claimReward",
      "outputs": [],
      "stateMutability": "nonpayable",
      "type": "function"
    },
    {
      "inputs": [
        {
          "internalType": "address",
          "name": "token",
          "type": "address"
        },
        {
          "internalType": "uint256",
          "name": "amount",
          "type": "uint256"
        }
      ],
      "name": "enterGame",
      "outputs": [],
      "stateMutability": "nonpayable",
      "type": "function"
    },
    {
      "inputs": [],
      "name": "gameIdCounter",
      "outputs": [
        {
          "internalType": "uint256",
          "name": "",
          "type": "uint256"
        }
      ],
      "stateMutability": "view",
      "type": "function"
    },
    {
      "inputs": [
        {
          "internalType": "address",
          "name": "token",
          "type": "address"
        }
      ],
      "name": "getContractBalance",
      "outputs": [
        {
          "internalType": "uint256",
          "name": "",
          "type": "uint256"
        }
      ],
      "stateMutability": "view",
      "type": "function"
    },
    {
      "inputs": [
        {
          "internalType": "address",
          "name": "player",
          "type": "address"
        }
      ],
      "name": "getPlayerReward",
      "outputs": [
        {
          "internalType": "address[]",
          "name": "",
          "type": "address[]"
        },
        {
          "internalType": "uint256[]",
          "name": "",
          "type": "uint256[]"
        }
      ],
      "stateMutability": "view",
      "type": "function"
    },
    {
      "inputs": [
        {
          "internalType": "address",
          "name": "player",
          "type": "address"
        }
      ],
      "name": "getPlayerStatus",
      "outputs": [
        {
          "internalType": "enum WormGame.PlayerStatus",
          "name": "",
          "type": "uint8"
        }
      ],
      "stateMutability": "view",
      "type": "function"
    },
    {
      "inputs": [],
      "name": "minExitValue",
      "outputs": [
        {
          "internalType": "uint256",
          "name": "",
          "type": "uint256"
        }
      ],
      "stateMutability": "view",
      "type": "function"
    },
    {
      "inputs": [],
      "name": "owner",
      "outputs": [
        {
          "internalType": "address",
          "name": "",
          "type": "address"
        }
      ],
      "stateMutability": "view",
      "type": "function"
    },
    {
      "inputs": [
        {
          "internalType": "address",
          "name": "",
          "type": "address"
        }
      ],
      "name": "players",
      "outputs": [
        {
          "internalType": "enum WormGame.PlayerStatus",
          "name": "status",
          "type": "uint8"
        },
        {
          "internalType": "address",
          "name": "entryToken",
          "type": "address"
        },
        {
          "internalType": "uint256",
          "name": "entryAmount",
          "type": "uint256"
        },
        {
          "internalType": "uint256",
          "name": "enteredAt",
          "type": "uint256"
        },
        {
          "internalType": "uint256",
          "name": "gameId",
          "type": "uint256"
        }
      ],
      "stateMutability": "view",
      "type": "function"
    },
    {
      "inputs": [],
      "name": "relayer",
      "outputs": [
        {
          "internalType": "address",
          "name": "",
          "type": "address"
        }
      ],
      "stateMutability": "view",
      "type": "function"
    },
    {
      "inputs": [],
      "name": "renounceOwnership",
      "outputs": [],
      "stateMutability": "nonpayable",
      "type": "function"
    },
    {
      "inputs": [
        {
          "internalType": "uint256",
          "name": "newMinExitValue",
          "type": "uint256"
        }
      ],
      "name": "setMinExitValue",
      "outputs": [],
      "stateMutability": "nonpayable",
      "type": "function"
    },
    {
      "inputs": [
        {
          "internalType": "address",
          "name": "newRelayer",
          "type": "address"
        }
      ],
      "name": "setRelayer",
      "outputs": [],
      "stateMutability": "nonpayable",
      "type": "function"
    },
    {
      "inputs": [
        {
          "internalType": "address",
          "name": "newOwner",
          "type": "address"
        }
      ],
      "name": "transferOwnership",
      "outputs": [],
      "stateMutability": "nonpayable",
      "type": "function"
    },
    {
      "inputs": [
        {
          "internalType": "address",
          "name": "player",
          "type": "address"
        },
        {
          "internalType": "enum WormGame.PlayerStatus",
          "name": "newStatus",
          "type": "uint8"
        },
        {
          "internalType": "address[]",
          "name": "rewardTokens",
          "type": "address[]"
        },
        {
          "internalType": "uint256[]",
          "name": "rewardAmounts",
          "type": "uint256[]"
        }
      ],
      "name": "updateGameState",
      "outputs": [],
      "stateMutability": "nonpayable",
      "type": "function"
    }
  ],
  "bytecode": "0x608060405234801561000f575f5ffd5b506040516110e03803806110e083398101604081905261002e916100d9565b338061005357604051631e4fbdf760e01b81525f600482015260240160405180910390fd5b61005c8161008a565b5060018055600280546001600160a01b0319166001600160a01b039390931692909217909155600355610110565b5f80546001600160a01b038381166001600160a01b0319831681178455604051919092169283917f8be0079c531659141344cd1fd0a4f28419497f9722a3daafe3b4186f6b6457e09190a35050565b5f5f604083850312156100ea575f5ffd5b82516001600160a01b0381168114610100575f5ffd5b6020939093015192949293505050565b610fc38061011d5f395ff3fe608060405234801561000f575f5ffd5b50600436106100f0575f3560e01c8063715018a611610093578063be29852611610063578063be298526146101ee578063e2eb41ff14610201578063f2fde38b1461025a578063f93fc3aa1461026d575f5ffd5b8063715018a6146101a35780638406c079146101ab5780638da5cb5b146101d6578063b88a802f146101e6575f5ffd5b8063196a0393116100ce578063196a0393146101615780631bb412d61461017457806343ab265f1461017d5780636548e9bc14610190575f5ffd5b80630f45db91146100f457806316170a8014610135578063178228f11461014c575b5f5ffd5b61011f610102366004610bef565b6001600160a01b03165f9081526004602052604090205460ff1690565b60405161012c9190610c43565b60405180910390f35b61013e60035481565b60405190815260200161012c565b61015f61015a366004610c51565b61028e565b005b61015f61016f366004610cc1565b6104d6565b61013e60055481565b61013e61018b366004610bef565b610696565b61015f61019e366004610bef565b610704565b61015f61075d565b6002546101be906001600160a01b031681565b6040516001600160a01b03909116815260200161012c565b5f546001600160a01b03166101be565b61015f610770565b61015f6101fc366004610d56565b610943565b61024961020f366004610bef565b600460208190525f9182526040909120805460018201549282015460059092015460ff8216936101009092046001600160a01b0316929085565b60405161012c959493929190610d6d565b61015f610268366004610bef565b610950565b61028061027b366004610bef565b610992565b60405161012c929190610da7565b610296610a66565b335f908152600460205260408120908290036102c55760405163162908e360e11b815260040160405180910390fd5b6001815460ff1660048111156102dd576102dd610c0f565b036102fb5760405163c56fb25360e01b815260040160405180910390fd5b6004815460ff16600481111561031357610313610c0f565b148061033457506003815460ff16600481111561033257610332610c0f565b145b1561039957335f90815260046020526040812080546001600160a81b0319168155600181018290559061036a6002830182610b0b565b610377600383015f610b0b565b505f600482810182905560059092018190553381526020919091526040902090505b6040516323b872dd60e01b8152336004820152306024820152604481018390526001600160a01b038416906323b872dd906064016020604051808303815f875af11580156103e9573d5f5f3e3d5ffd5b505050506040513d601f19601f8201168201806040525081019061040d9190610e30565b5060058054905f61041d83610e4f565b9091555050805460016001600160a81b03199091166101006001600160a01b03861602178117825581018290554260048201556005805490820155610465600282015f610b0b565b610472600382015f610b0b565b600554604080516001600160a01b0386168152602081018590529081019190915242606082015233907f3bdd20b395c6df9c3f03da60888cbf07bc747906c7b9ad8f255b93d714b1caba9060800160405180910390a2506104d260018055565b5050565b6002546001600160a01b03163314610501576040516308af1bb760e31b815260040160405180910390fd5b6001600160a01b0386165f9081526004602052604090206001815460ff16600481111561053057610530610c0f565b1461054e576040516307a92f1960e51b815260040160405180910390fd5b600286600481111561056257610562610c0f565b141580156105825750600386600481111561057f5761057f610c0f565b14155b156105a0576040516307a92f1960e51b815260040160405180910390fd5b8382146105c3576040516001621398b960e31b0319815260040160405180910390fd5b80548690829060ff191660018360048111156105e1576105e1610c0f565b021790555060028660048111156105fa576105fa610c0f565b036106225761060d600282018686610b26565b5061061c600382018484610b87565b5061063c565b61062f600282015f610b0b565b61063c600382015f610b0b565b866001600160a01b03167f1fb871d460a94005cdd5428194f507babee30af6addf395faad9c5d4a3befd8c87836005015484600201856003016040516106859493929190610eec565b60405180910390a250505050505050565b6040516370a0823160e01b81523060048201525f906001600160a01b038316906370a0823190602401602060405180830381865afa1580156106da573d5f5f3e3d5ffd5b505050506040513d601f19601f820116820180604052508101906106fe9190610f2e565b92915050565b61070c610a90565b600280546001600160a01b038381166001600160a01b0319831681179093556040519116919082907f605ca4e43489fb38b91aa63dd9147cd3847957694b080b9285ec898b34269f0c905f90a35050565b610765610a90565b61076e5f610abc565b565b610778610a66565b335f9081526004602052604090206002815460ff16600481111561079e5761079e610c0f565b146107bc57604051638de499ef60e01b815260040160405180910390fd5b60028101545f036107e057604051635aa9184d60e01b815260040160405180910390fd5b805460ff191660041781555f5b60028201548110156108e9575f82600301828154811061080f5761080f610f45565b905f5260205f20015411156108e15781600201818154811061083357610833610f45565b5f918252602090912001546003830180546001600160a01b039092169163a9059cbb9133918590811061086857610868610f45565b5f918252602090912001546040516001600160e01b031960e085901b1681526001600160a01b03909216600483015260248201526044016020604051808303815f875af11580156108bb573d5f5f3e3d5ffd5b505050506040513d601f19601f820116820180604052508101906108df9190610e30565b505b6001016107ed565b50336001600160a01b03167f558a438e82ed22293565ea8b1d808b69544bba0eae076b585585209333b974a68260050154836002018460030160405161093193929190610f59565b60405180910390a25061076e60018055565b61094b610a90565b600355565b610958610a90565b6001600160a01b03811661098657604051631e4fbdf760e01b81525f60048201526024015b60405180910390fd5b61098f81610abc565b50565b6001600160a01b0381165f90815260046020908152604091829020600281018054845181850281018501909552808552606094859460038501928491830182828015610a0557602002820191905f5260205f20905b81546001600160a01b031681526001909101906020018083116109e7575b5050505050915080805480602002602001604051908101604052809291908181526020018280548015610a5557602002820191905f5260205f20905b815481526020019060010190808311610a41575b505050505090509250925050915091565b600260015403610a8957604051633ee5aeb560e01b815260040160405180910390fd5b6002600155565b5f546001600160a01b0316331461076e5760405163118cdaa760e01b815233600482015260240161097d565b5f80546001600160a01b038381166001600160a01b0319831681178455604051919092169283917f8be0079c531659141344cd1fd0a4f28419497f9722a3daafe3b4186f6b6457e09190a35050565b5080545f8255905f5260205f209081019061098f9190610bc0565b828054828255905f5260205f20908101928215610b77579160200282015b82811115610b775781546001600160a01b0319166001600160a01b03843516178255602090920191600190910190610b44565b50610b83929150610bc0565b5090565b828054828255905f5260205f20908101928215610b77579160200282015b82811115610b77578235825591602001919060010190610ba5565b5b80821115610b83575f8155600101610bc1565b80356001600160a01b0381168114610bea575f5ffd5b919050565b5f60208284031215610bff575f5ffd5b610c0882610bd4565b9392505050565b634e487b7160e01b5f52602160045260245ffd5b60058110610c3f57634e487b7160e01b5f52602160045260245ffd5b9052565b602081016106fe8284610c23565b5f5f60408385031215610c62575f5ffd5b610c6b83610bd4565b946020939093013593505050565b5f5f83601f840112610c89575f5ffd5b50813567ffffffffffffffff811115610ca0575f5ffd5b6020830191508360208260051b8501011115610cba575f5ffd5b9250929050565b5f5f5f5f5f5f60808789031215610cd6575f5ffd5b610cdf87610bd4565b9550602087013560058110610cf2575f5ffd5b9450604087013567ffffffffffffffff811115610d0d575f5ffd5b610d1989828a01610c79565b909550935050606087013567ffffffffffffffff811115610d38575f5ffd5b610d4489828a01610c79565b979a9699509497509295939492505050565b5f60208284031215610d66575f5ffd5b5035919050565b60a08101610d7b8288610c23565b6001600160a01b0395909516602082015260408101939093526060830191909152608090910152919050565b604080825283519082018190525f9060208501906060840190835b81811015610de95783516001600160a01b0316835260209384019390920191600101610dc2565b5050838103602080860191909152855180835291810192508501905f5b81811015610e24578251845260209384019390920191600101610e06565b50919695505050505050565b5f60208284031215610e40575f5ffd5b81518015158114610c08575f5ffd5b5f60018201610e6c57634e487b7160e01b5f52601160045260245ffd5b5060010190565b5f8154808452602084019350825f5260205f205f5b82811015610eaf5781546001600160a01b0316865260209095019460019182019101610e88565b5093949350505050565b5f8154808452602084019350825f5260205f205f5b82811015610eaf578154865260209095019460019182019101610ece565b610ef68186610c23565b836020820152608060408201525f610f116080830185610e73565b8281036060840152610f238185610eb9565b979650505050505050565b5f60208284031215610f3e575f5ffd5b5051919050565b634e487b7160e01b5f52603260045260245ffd5b838152606060208201525f610f716060830185610e73565b8281036040840152610f838185610eb9565b969550505050505056fea2646970667358221220999046206969b6ff708b1975b1a0aab61d1a343896c12975f729c2c970283a1764736f6c634300081c0033",
  "linkReferences": {},
  "deployedLinkReferences": {},
  "immutableReferences": {},
  "inputSourceName": "project/contracts/WormGame.sol",
  "buildInfoId": "solc-0_8_28-454ed2a37c4eddb0fd690919ee01cd38b6c03186"
}