{
  "_format": "hh3-artifact-1",
  "contractName": "WormGame",
  "sourceName": "contracts/WormGame.sol",
  "abi": [
    {
      "inputs": [
        {
          "internalType": "address",
          "name": "_oracleAdapter",
          "type": "address"
        },
        {
          "internalType": "address",
          "name": "_serverSigner",
          "type": "address"
        }
      ],
      "stateMutability": "nonpayable",
      "type": "constructor"
    },
    {
      "inputs": [],
      "name": "ECDSAInvalidSignature",
      "type": "error"
    },
    {
      "inputs": [
        {
          "internalType": "uint256",
          "name": "length",
          "type": "uint256"
        }
      ],
      "name": "ECDSAInvalidSignatureLength",
      "type": "error"
    },
    {
      "inputs": [
        {
          "internalType": "bytes32",
          "name": "s",
          "type": "bytes32"
        }
      ],
      "name": "ECDSAInvalidSignatureS",
      "type": "error"
    },
    {
      "inputs": [],
      "name": "InsufficientExitValue",
      "type": "error"
    },
    {
      "inputs": [],
      "name": "InvalidAmount",
      "type": "error"
    },
    {
      "inputs": [],
      "name": "InvalidSignature",
      "type": "error"
    },
    {
      "inputs": [],
      "name": "LengthMismatch",
      "type": "error"
    },
    {
      "inputs": [],
      "name": "NonceAlreadyUsed",
      "type": "error"
    },
    {
      "inputs": [
        {
          "internalType": "address",
          "name": "owner",
          "type": "address"
        }
      ],
      "name": "OwnableInvalidOwner",
      "type": "error"
    },
    {
      "inputs": [
        {
          "internalType": "address",
          "name": "account",
          "type": "address"
        }
      ],
      "name": "OwnableUnauthorizedAccount",
      "type": "error"
    },
    {
      "inputs": [],
      "name": "ReentrancyGuardReentrantCall",
      "type": "error"
    },
    {
      "anonymous": false,
      "inputs": [
        {
          "indexed": true,
          "internalType": "address",
          "name": "user",
          "type": "address"
        },
        {
          "indexed": false,
          "internalType": "address",
          "name": "token",
          "type": "address"
        },
        {
          "indexed": false,
          "internalType": "uint256",
          "name": "amount",
          "type": "uint256"
        }
      ],
      "name": "GameEntered",
      "type": "event"
    },
    {
      "anonymous": false,
      "inputs": [
        {
          "indexed": true,
          "internalType": "address",
          "name": "user",
          "type": "address"
        },
        {
          "indexed": false,
          "internalType": "address[]",
          "name": "tokens",
          "type": "address[]"
        },
        {
          "indexed": false,
          "internalType": "uint256[]",
          "name": "amounts",
          "type": "uint256[]"
        },
        {
          "indexed": false,
          "internalType": "uint256",
          "name": "totalValue",
          "type": "uint256"
        }
      ],
      "name": "GameExited",
      "type": "event"
    },
    {
      "anonymous": false,
      "inputs": [
        {
          "indexed": true,
          "internalType": "address",
          "name": "user",
          "type": "address"
        },
        {
          "indexed": false,
          "internalType": "address[]",
          "name": "tokens",
          "type": "address[]"
        },
        {
          "indexed": false,
          "internalType": "uint256[]",
          "name": "amounts",
          "type": "uint256[]"
        },
        {
          "indexed": false,
          "internalType": "uint256",
          "name": "totalValue",
          "type": "uint256"
        }
      ],
      "name": "GameOver",
      "type": "event"
    },
    {
      "anonymous": false,
      "inputs": [
        {
          "indexed": true,
          "internalType": "address",
          "name": "previousOwner",
          "type": "address"
        },
        {
          "indexed": true,
          "internalType": "address",
          "name": "newOwner",
          "type": "address"
        }
      ],
      "name": "OwnershipTransferred",
      "type": "event"
    },
    {
      "inputs": [
        {
          "internalType": "address",
          "name": "token",
          "type": "address"
        },
        {
          "internalType": "uint256",
          "name": "amount",
          "type": "uint256"
        }
      ],
      "name": "enterGame",
      "outputs": [],
      "stateMutability": "nonpayable",
      "type": "function"
    },
    {
      "inputs": [
        {
          "components": [
            {
              "internalType": "address[]",
              "name": "tokens",
              "type": "address[]"
            },
            {
              "internalType": "uint256[]",
              "name": "amounts",
              "type": "uint256[]"
            },
            {
              "internalType": "uint256",
              "name": "nonce",
              "type": "uint256"
            }
          ],
          "internalType": "struct GameResult",
          "name": "result",
          "type": "tuple"
        },
        {
          "internalType": "bytes",
          "name": "signature",
          "type": "bytes"
        }
      ],
      "name": "exitGame",
      "outputs": [],
      "stateMutability": "nonpayable",
      "type": "function"
    },
    {
      "inputs": [
        {
          "components": [
            {
              "internalType": "address[]",
              "name": "tokens",
              "type": "address[]"
            },
            {
              "internalType": "uint256[]",
              "name": "amounts",
              "type": "uint256[]"
            },
            {
              "internalType": "uint256",
              "name": "nonce",
              "type": "uint256"
            }
          ],
          "internalType": "struct GameResult",
          "name": "result",
          "type": "tuple"
        },
        {
          "internalType": "bytes",
          "name": "signature",
          "type": "bytes"
        }
      ],
      "name": "gameOver",
      "outputs": [],
      "stateMutability": "nonpayable",
      "type": "function"
    },
    {
      "inputs": [],
      "name": "minExitValue",
      "outputs": [
        {
          "internalType": "uint256",
          "name": "",
          "type": "uint256"
        }
      ],
      "stateMutability": "view",
      "type": "function"
    },
    {
      "inputs": [],
      "name": "oracleAdapter",
      "outputs": [
        {
          "internalType": "contract IOracleAdapter",
          "name": "",
          "type": "address"
        }
      ],
      "stateMutability": "view",
      "type": "function"
    },
    {
      "inputs": [],
      "name": "owner",
      "outputs": [
        {
          "internalType": "address",
          "name": "",
          "type": "address"
        }
      ],
      "stateMutability": "view",
      "type": "function"
    },
    {
      "inputs": [],
      "name": "renounceOwnership",
      "outputs": [],
      "stateMutability": "nonpayable",
      "type": "function"
    },
    {
      "inputs": [],
      "name": "serverSigner",
      "outputs": [
        {
          "internalType": "address",
          "name": "",
          "type": "address"
        }
      ],
      "stateMutability": "view",
      "type": "function"
    },
    {
      "inputs": [
        {
          "internalType": "uint256",
          "name": "_value",
          "type": "uint256"
        }
      ],
      "name": "setMinExitValue",
      "outputs": [],
      "stateMutability": "nonpayable",
      "type": "function"
    },
    {
      "inputs": [
        {
          "internalType": "address",
          "name": "_oracleAdapter",
          "type": "address"
        }
      ],
      "name": "setOracleAdapter",
      "outputs": [],
      "stateMutability": "nonpayable",
      "type": "function"
    },
    {
      "inputs": [
        {
          "internalType": "address",
          "name": "_serverSigner",
          "type": "address"
        }
      ],
      "name": "setServerSigner",
      "outputs": [],
      "stateMutability": "nonpayable",
      "type": "function"
    },
    {
      "inputs": [
        {
          "internalType": "address",
          "name": "newOwner",
          "type": "address"
        }
      ],
      "name": "transferOwnership",
      "outputs": [],
      "stateMutability": "nonpayable",
      "type": "function"
    },
    {
      "inputs": [
        {
          "internalType": "uint256",
          "name": "",
          "type": "uint256"
        }
      ],
      "name": "usedNonces",
      "outputs": [
        {
          "internalType": "bool",
          "name": "",
          "type": "bool"
        }
      ],
      "stateMutability": "view",
      "type": "function"
    }
  ],
  "bytecode": "0x608060405234801561000f575f5ffd5b506040516110ba3803806110ba83398101604081905261002e916100fe565b60015f55338061005757604051631e4fbdf760e01b81525f600482015260240160405180910390fd5b61006081610092565b50600280546001600160a01b039384166001600160a01b0319918216179091556003805492909316911617905561012f565b600180546001600160a01b038381166001600160a01b0319831681179093556040519116919082907f8be0079c531659141344cd1fd0a4f28419497f9722a3daafe3b4186f6b6457e0905f90a35050565b80516001600160a01b03811681146100f9575f5ffd5b919050565b5f5f6040838503121561010f575f5ffd5b610118836100e3565b9150610126602084016100e3565b90509250929050565b610f7e8061013c5f395ff3fe608060405234801561000f575f5ffd5b50600436106100cb575f3560e01c8063715018a61161008857806398e862811161006357806398e86281146101af578063be298526146101c2578063edb6d075146101d5578063f2fde38b146101e8575f5ffd5b8063715018a614610183578063756f02191461018b5780638da5cb5b1461019e575f5ffd5b8063117724ed146100cf57806316170a80146100e4578063178228f11461010057806331af1908146101135780633d9f31631461013e5780636717e41c14610151575b5f5ffd5b6100e26100dd366004610c2c565b6101fb565b005b6100ed60045481565b6040519081526020015b60405180910390f35b6100e261010e366004610ce3565b6105b1565b600354610126906001600160a01b031681565b6040516001600160a01b0390911681526020016100f7565b600254610126906001600160a01b031681565b61017361015f366004610d0b565b60056020525f908152604090205460ff1681565b60405190151581526020016100f7565b6100e261069f565b6100e2610199366004610c2c565b6106b2565b6001546001600160a01b0316610126565b6100e26101bd366004610d22565b6108f2565b6100e26101d0366004610d0b565b61091c565b6100e26101e3366004610d22565b610929565b6100e26101f6366004610d22565b610953565b610203610995565b6102106020840184610d42565b905061021c8480610d42565b90501461023f576040516001621398b960e31b0319815260040160405180910390fd5b6040808401355f9081526005602052205460ff161561027057604051623f613760e71b815260040160405180910390fd5b5f3361027c8580610d42565b6102896020880188610d42565b88604001356040516020016102a396959493929190610d8f565b6040516020818303038152906040528051906020012090505f6102f2827f19457468657265756d205369676e6564204d6573736167653a0a3332000000005f908152601c91909152603c902090565b600354604080516020601f88018190048102820181019092528681529293506001600160a01b03909116916103439187908790819084018382808284375f9201919091525086939250506109bd9050565b6001600160a01b03161461036a57604051638baa579f60e01b815260040160405180910390fd5b6040808601355f9081526005602052908120805460ff191660011790556002546001600160a01b031663cd568b4e6103a28880610d42565b6103af60208b018b610d42565b6040518563ffffffff1660e01b81526004016103ce9493929190610e80565b602060405180830381865afa1580156103e9573d5f5f3e3d5ffd5b505050506040513d601f19601f8201168201806040525081019061040d9190610eb1565b90506004548110156104325760405163a70ca45f60e01b815260040160405180910390fd5b5f5b61043e8780610d42565b905081101561054c575f6104556020890189610d42565b8381811061046557610465610ec8565b9050602002013511156105445761047c8780610d42565b8281811061048c5761048c610ec8565b90506020020160208101906104a19190610d22565b6001600160a01b031663a9059cbb336104bd60208b018b610d42565b858181106104cd576104cd610ec8565b6040516001600160e01b031960e087901b1681526001600160a01b03909416600485015260200291909101356024830152506044016020604051808303815f875af115801561051e573d5f5f3e3d5ffd5b505050506040513d601f19601f820116820180604052508101906105429190610edc565b505b600101610434565b50337fddbb9c33af2f243e87a0d8f314d443e73ecfc4921356f238a855a41c494361526105798880610d42565b61058660208b018b610d42565b86604051610598959493929190610efb565b60405180910390a25050506105ac60015f55565b505050565b6105b9610995565b805f036105d95760405163162908e360e11b815260040160405180910390fd5b6040516323b872dd60e01b8152336004820152306024820152604481018290526001600160a01b038316906323b872dd906064016020604051808303815f875af1158015610629573d5f5f3e3d5ffd5b505050506040513d601f19601f8201168201806040525081019061064d9190610edc565b50604080516001600160a01b03841681526020810183905233917fb71aebbba02cab976737c76ac798eaee44f9e7ff2aa340d17c6ac7c01bd2e877910160405180910390a261069b60015f55565b5050565b6106a76109e5565b6106b05f610a12565b565b6106ba610995565b6106c76020840184610d42565b90506106d38480610d42565b9050146106f6576040516001621398b960e31b0319815260040160405180910390fd5b6040808401355f9081526005602052205460ff161561072757604051623f613760e71b815260040160405180910390fd5b5f336107338580610d42565b6107406020880188610d42565b886040013560405160200161075a96959493929190610d8f565b6040516020818303038152906040528051906020012090505f6107a9827f19457468657265756d205369676e6564204d6573736167653a0a3332000000005f908152601c91909152603c902090565b600354604080516020601f88018190048102820181019092528681529293506001600160a01b03909116916107fa9187908790819084018382808284375f9201919091525086939250506109bd9050565b6001600160a01b03161461082157604051638baa579f60e01b815260040160405180910390fd5b6040808601355f9081526005602052908120805460ff191660011790556002546001600160a01b031663cd568b4e6108598880610d42565b61086660208b018b610d42565b6040518563ffffffff1660e01b81526004016108859493929190610e80565b602060405180830381865afa1580156108a0573d5f5f3e3d5ffd5b505050506040513d601f19601f820116820180604052508101906108c49190610eb1565b9050337f9e4b7b1be179692be75150fccb88ec320e954813b65731bf10a22621e1dd65256105798880610d42565b6108fa6109e5565b600380546001600160a01b0319166001600160a01b0392909216919091179055565b6109246109e5565b600455565b6109316109e5565b600280546001600160a01b0319166001600160a01b0392909216919091179055565b61095b6109e5565b6001600160a01b03811661098957604051631e4fbdf760e01b81525f60048201526024015b60405180910390fd5b61099281610a12565b50565b60025f54036109b757604051633ee5aeb560e01b815260040160405180910390fd5b60025f55565b5f5f5f5f6109cb8686610a63565b9250925092506109db8282610aac565b5090949350505050565b6001546001600160a01b031633146106b05760405163118cdaa760e01b8152336004820152602401610980565b600180546001600160a01b038381166001600160a01b0319831681179093556040519116919082907f8be0079c531659141344cd1fd0a4f28419497f9722a3daafe3b4186f6b6457e0905f90a35050565b5f5f5f8351604103610a9a576020840151604085015160608601515f1a610a8c88828585610b64565b955095509550505050610aa5565b505081515f91506002905b9250925092565b5f826003811115610abf57610abf610f34565b03610ac8575050565b6001826003811115610adc57610adc610f34565b03610afa5760405163f645eedf60e01b815260040160405180910390fd5b6002826003811115610b0e57610b0e610f34565b03610b2f5760405163fce698f760e01b815260048101829052602401610980565b6003826003811115610b4357610b43610f34565b0361069b576040516335e2f38360e21b815260048101829052602401610980565b5f80807f7fffffffffffffffffffffffffffffff5d576e7357a4501ddfe92f46681b20a0841115610b9d57505f91506003905082610c22565b604080515f808252602082018084528a905260ff891692820192909252606081018790526080810186905260019060a0016020604051602081039080840390855afa158015610bee573d5f5f3e3d5ffd5b5050604051601f1901519150506001600160a01b038116610c1957505f925060019150829050610c22565b92505f91508190505b9450945094915050565b5f5f5f60408486031215610c3e575f5ffd5b833567ffffffffffffffff811115610c54575f5ffd5b840160608187031215610c65575f5ffd5b9250602084013567ffffffffffffffff811115610c80575f5ffd5b8401601f81018613610c90575f5ffd5b803567ffffffffffffffff811115610ca6575f5ffd5b866020828401011115610cb7575f5ffd5b939660209190910195509293505050565b80356001600160a01b0381168114610cde575f5ffd5b919050565b5f5f60408385031215610cf4575f5ffd5b610cfd83610cc8565b946020939093013593505050565b5f60208284031215610d1b575f5ffd5b5035919050565b5f60208284031215610d32575f5ffd5b610d3b82610cc8565b9392505050565b5f5f8335601e19843603018112610d57575f5ffd5b83018035915067ffffffffffffffff821115610d71575f5ffd5b6020019150600581901b3603821315610d88575f5ffd5b9250929050565b6bffffffffffffffffffffffff198760601b1681525f60148201875f5b88811015610ddb576001600160a01b03610dc583610cc8565b1683526020928301929190910190600101610dac565b50506001600160fb1b03851115610df0575f5ffd5b8460051b8087833701928352505060200195945050505050565b8183526020830192505f815f5b84811015610e46576001600160a01b03610e3083610cc8565b1686526020958601959190910190600101610e17565b5093949350505050565b8183525f6001600160fb1b03831115610e67575f5ffd5b8260051b80836020870137939093016020019392505050565b604081525f610e93604083018688610e0a565b8281036020840152610ea6818587610e50565b979650505050505050565b5f60208284031215610ec1575f5ffd5b5051919050565b634e487b7160e01b5f52603260045260245ffd5b5f60208284031215610eec575f5ffd5b81518015158114610d3b575f5ffd5b606081525f610f0e606083018789610e0a565b8281036020840152610f21818688610e50565b9150508260408301529695505050505050565b634e487b7160e01b5f52602160045260245ffdfea2646970667358221220cdbaccd5babb20267b9b89cacb84a9dc87a5f98cba48bd03c8a60ef7bab491dd64736f6c634300081c0033",
  "linkReferences": {},
  "deployedLinkReferences": {},
  "immutableReferences": {},
  "inputSourceName": "project/contracts/WormGame.sol",
  "buildInfoId": "solc-0_8_28-82b89f8c4b347c7ab460758041cfe45eebac4008"
}