{
  "_format": "hh3-artifact-1",
  "contractName": "UserOnChainPriceOracleAdapter",
  "sourceName": "contracts/UserOnChainPriceOracleAdapter.sol",
  "abi": [
    {
      "inputs": [
        {
          "internalType": "address",
          "name": "_priceFetcher",
          "type": "address"
        }
      ],
      "stateMutability": "nonpayable",
      "type": "constructor"
    },
    {
      "inputs": [
        {
          "internalType": "address",
          "name": "token",
          "type": "address"
        }
      ],
      "name": "getPrice",
      "outputs": [
        {
          "internalType": "uint256",
          "name": "",
          "type": "uint256"
        }
      ],
      "stateMutability": "view",
      "type": "function"
    },
    {
      "inputs": [
        {
          "internalType": "address[]",
          "name": "tokens",
          "type": "address[]"
        },
        {
          "internalType": "uint256[]",
          "name": "amounts",
          "type": "uint256[]"
        }
      ],
      "name": "getTotalValue",
      "outputs": [
        {
          "internalType": "uint256",
          "name": "",
          "type": "uint256"
        }
      ],
      "stateMutability": "view",
      "type": "function"
    },
    {
      "inputs": [],
      "name": "priceFetcher",
      "outputs": [
        {
          "internalType": "contract IPriceFetcher",
          "name": "",
          "type": "address"
        }
      ],
      "stateMutability": "view",
      "type": "function"
    }
  ],
  "bytecode": "0x6080604052348015600e575f5ffd5b5060405161043f38038061043f833981016040819052602b91604e565b5f80546001600160a01b0319166001600160a01b03929092169190911790556079565b5f60208284031215605d575f5ffd5b81516001600160a01b03811681146072575f5ffd5b9392505050565b6103b9806100865f395ff3fe608060405234801561000f575f5ffd5b506004361061003f575f3560e01c80632421d7261461004357806341976e0914610072578063cd568b4e14610093575b5f5ffd5b5f54610055906001600160a01b031681565b6040516001600160a01b0390911681526020015b60405180910390f35b61008561008036600461021a565b6100a6565b604051908152602001610069565b6100856100a136600461028f565b610118565b5f80546040516341976e0960e01b81526001600160a01b038481166004830152909116906341976e0990602401602060405180830381865afa1580156100ee573d5f5f3e3d5ffd5b505050506040513d601f19601f8201168201806040525081019061011291906102fb565b92915050565b5f80805b85811015610210575f80546001600160a01b03166341976e0989898581811061014757610147610312565b905060200201602081019061015c919061021a565b6040516001600160e01b031960e084901b1681526001600160a01b039091166004820152602401602060405180830381865afa15801561019e573d5f5f3e3d5ffd5b505050506040513d601f19601f820116820180604052508101906101c291906102fb565b9050670de0b6b3a7640000818787858181106101e0576101e0610312565b905060200201356101f1919061033a565b6101fb9190610351565b6102059084610370565b92505060010161011c565b5095945050505050565b5f6020828403121561022a575f5ffd5b81356001600160a01b0381168114610240575f5ffd5b9392505050565b5f5f83601f840112610257575f5ffd5b50813567ffffffffffffffff81111561026e575f5ffd5b6020830191508360208260051b8501011115610288575f5ffd5b9250929050565b5f5f5f5f604085870312156102a2575f5ffd5b843567ffffffffffffffff8111156102b8575f5ffd5b6102c487828801610247565b909550935050602085013567ffffffffffffffff8111156102e3575f5ffd5b6102ef87828801610247565b95989497509550505050565b5f6020828403121561030b575f5ffd5b5051919050565b634e487b7160e01b5f52603260045260245ffd5b634e487b7160e01b5f52601160045260245ffd5b808202811582820484141761011257610112610326565b5f8261036b57634e487b7160e01b5f52601260045260245ffd5b500490565b808201808211156101125761011261032656fea2646970667358221220324b195f260a3d2f1c3a3e2cc471b3a0e047b43ed4a6738aa99853581dd62db264736f6c634300081c0033",
  "linkReferences": {},
  "deployedLinkReferences": {},
  "immutableReferences": {},
  "inputSourceName": "project/contracts/UserOnChainPriceOracleAdapter.sol",
  "buildInfoId": "solc-0_8_28-2329829dd4c8da8e08f16fc74039498da380ce4f"
}